{
  "abi": [
    {
      "inputs": [
        {
          "internalType": "uint256",
          "name": "_ID",
          "type": "uint256"
        }
      ],
      "name": "campaignEnds",
      "outputs": [],
      "stateMutability": "nonpayable",
      "type": "function"
    },
    {
      "inputs": [
        {
          "internalType": "uint256",
          "name": "",
          "type": "uint256"
        },
        {
          "internalType": "address",
          "name": "",
          "type": "address"
        }
      ],
      "name": "contribute",
      "outputs": [
        {
          "internalType": "uint256",
          "name": "",
          "type": "uint256"
        }
      ],
      "stateMutability": "view",
      "type": "function"
    },
    {
      "inputs": [
        {
          "internalType": "uint256",
          "name": "_ID",
          "type": "uint256"
        }
      ],
      "name": "contributeEth",
      "outputs": [],
      "stateMutability": "payable",
      "type": "function"
    },
    {
      "inputs": [
        {
          "internalType": "uint256",
          "name": "",
          "type": "uint256"
        }
      ],
      "name": "crowd",
      "outputs": [
        {
          "internalType": "string",
          "name": "title",
          "type": "string"
        },
        {
          "internalType": "uint256",
          "name": "fundingGoal",
          "type": "uint256"
        },
        {
          "internalType": "address",
          "name": "owner",
          "type": "address"
        },
        {
          "internalType": "uint256",
          "name": "durationTime",
          "type": "uint256"
        },
        {
          "internalType": "bool",
          "name": "isActive",
          "type": "bool"
        },
        {
          "internalType": "uint256",
          "name": "fundingBalance",
          "type": "uint256"
        }
      ],
      "stateMutability": "view",
      "type": "function"
    },
    {
      "inputs": [],
      "name": "id",
      "outputs": [
        {
          "internalType": "uint256",
          "name": "",
          "type": "uint256"
        }
      ],
      "stateMutability": "view",
      "type": "function"
    },
    {
      "inputs": [
        {
          "internalType": "string",
          "name": "_title",
          "type": "string"
        },
        {
          "internalType": "uint256",
          "name": "_fundingGoal",
          "type": "uint256"
        },
        {
          "internalType": "uint256",
          "name": "_durationTime",
          "type": "uint256"
        }
      ],
      "name": "proposeCampaign",
      "outputs": [],
      "stateMutability": "nonpayable",
      "type": "function"
    }
  ],
  "bytecode": {
    "object": "0x608060405234801561001057600080fd5b50610a22806100206000396000f3fe6080604052600436106100555760003560e01c8063352d722f1461005a57806360b0b0f01461006f5780636258cd87146100ba57806362a7381e146100da578063af640d0f146100fa578063f68021d114610110575b600080fd5b61006d61006836600461067b565b610142565b005b34801561007b57600080fd5b506100a761008a366004610694565b600260209081526000928352604080842090915290825290205481565b6040519081526020015b60405180910390f35b3480156100c657600080fd5b5061006d6100d53660046106e6565b6102a7565b3480156100e657600080fd5b5061006d6100f536600461067b565b610313565b34801561010657600080fd5b506100a760005481565b34801561011c57600080fd5b5061013061012b36600461067b565b6103ec565b6040516100b1969594939291906107aa565b60008181526001602081905260409091206004810154909160ff9091161515146101a05760405162461bcd60e51b815260206004820152600a6024820152696e6f742061637469766560b01b60448201526064015b60405180910390fd5b80600101548160050154106101ef5760405162461bcd60e51b8152602060048201526015602482015274119d5b991a5b99c811dbd85b081058da1a595d9959605a1b6044820152606401610197565b80600301544211156102355760405162461bcd60e51b815260206004820152600f60248201526e2737ba1034b710323ab930ba34b7b760891b6044820152606401610197565b60008281526002602090815260408083203384529091528120805434929061025e908490610848565b92505081905550348160050160008282546102799190610848565b90915550506006018054600181018255600091825260209091200180546001600160a01b0319163317905550565b6000805490806102b683610861565b9091555050600080548152600160205260409020806102d58582610903565b50600181018390556002810180546001600160a01b031916331790556102fb4283610848565b6003820155600401805460ff19166001179055505050565b600081815260016020526040902060028101546001600160a01b031633146103735760405162461bcd60e51b815260206004820152601360248201527227b7363c9021b0b6b830b4b3b71037bbb732b960691b6044820152606401610197565b428160030154106103c65760405162461bcd60e51b815260206004820152601960248201527f54696d6520486173206e6f74206265656e2072656163686564000000000000006044820152606401610197565b8060010154816005015410156103e3576103df826104b7565b5050565b6103df82610616565b6001602052600090815260409020805481906104079061087a565b80601f01602080910402602001604051908101604052809291908181526020018280546104339061087a565b80156104805780601f1061045557610100808354040283529160200191610480565b820191906000526020600020905b81548152906001019060200180831161046357829003601f168201915b505050506001830154600284015460038501546004860154600590960154949592946001600160a01b0390921693509160ff169086565b600081815260016020908152604080832060068101805483518186028101860190945280845291949390919083018282801561051c57602002820191906000526020600020905b81546001600160a01b031681526001909101906020018083116104fe575b5050505050905060005b8151811015610610576000828281518110610543576105436109c3565b60209081029190910181015160008781526002835260408082206001600160a01b038416835290935291822054600587018054929450909283926105889084906109d9565b909155505060008681526002602090815260408083206001600160a01b0386168452909152812080548392906105bf9084906109d9565b90915550506040516001600160a01b0383169082156108fc029083906000818181858888f193505050501580156105fa573d6000803e3d6000fd5b505050808061060890610861565b915050610526565b50505050565b60008181526001602052604080822060028101546005820154925191936001600160a01b039091169280156108fc02929091818181858888f19350505050158015610665573d6000803e3d6000fd5b5060006005820155600401805460ff1916905550565b60006020828403121561068d57600080fd5b5035919050565b600080604083850312156106a757600080fd5b8235915060208301356001600160a01b03811681146106c557600080fd5b809150509250929050565b634e487b7160e01b600052604160045260246000fd5b6000806000606084860312156106fb57600080fd5b833567ffffffffffffffff8082111561071357600080fd5b818601915086601f83011261072757600080fd5b813581811115610739576107396106d0565b604051601f8201601f19908116603f01168101908382118183101715610761576107616106d0565b8160405282815289602084870101111561077a57600080fd5b82602086016020830137600060208483010152809750505050505060208401359150604084013590509250925092565b60c08152600087518060c084015260005b818110156107d8576020818b0181015160e08684010152016107bb565b50600060e0828501015260e0601f19601f83011684010191505086602083015261080d60408301876001600160a01b03169052565b846060830152610821608083018515159052565b8260a0830152979650505050505050565b634e487b7160e01b600052601160045260246000fd5b8082018082111561085b5761085b610832565b92915050565b60006001820161087357610873610832565b5060010190565b600181811c9082168061088e57607f821691505b6020821081036108ae57634e487b7160e01b600052602260045260246000fd5b50919050565b601f8211156108fe57600081815260208120601f850160051c810160208610156108db5750805b601f850160051c820191505b818110156108fa578281556001016108e7565b5050505b505050565b815167ffffffffffffffff81111561091d5761091d6106d0565b6109318161092b845461087a565b846108b4565b602080601f831160018114610966576000841561094e5750858301515b600019600386901b1c1916600185901b1785556108fa565b600085815260208120601f198616915b8281101561099557888601518255948401946001909101908401610976565b50858210156109b35787850151600019600388901b60f8161c191681555b5050505050600190811b01905550565b634e487b7160e01b600052603260045260246000fd5b8181038181111561085b5761085b61083256fea26469706673582212209ba049ade7131eadcae91b7ae20ff1925e01642617f98342dc12461fafa8832a64736f6c63430008130033",
    "linkReferences": {}
  },
  "methodIdentifiers": {
    "campaignEnds(uint256)": "62a7381e",
    "contribute(uint256,address)": "60b0b0f0",
    "contributeEth(uint256)": "352d722f",
    "crowd(uint256)": "f68021d1",
    "id()": "af640d0f",
    "proposeCampaign(string,uint256,uint256)": "6258cd87"
  },
  "id": 0
}